S00D000073646B5F312E7372656345
S11300000C942B000C94EE030C9453000C945300AA
S11300100C9453000C9453000C9453000C94530010
S11300200C9453000C9453000C9453000C94530000
S11300300C9453000C9453000C9453000C945300F0
S11300400C9453000C9453000C9453000C945300E0
S11300500C945300190411241FBECFE5D8E0DEBF71
S1130060CDBF10E0A0E6B0E0E8E1F9E002C0059001
S11300700D92A036B107D9F710E0A0E6B0E001C0B8
S11300801D92A839B107E1F710E0C6E5D0E004C03D
S11300902297FE010E948604C435D107C9F70E9445
S11300A070030C948A040C940000662331F4FC0160
S11300B0808191810E94A0000895FC01808191813A
S11300C06FEF0E94A0000895442331F4FC01808165
S11300D091810E94A5000895FC018081918141E0F5
S11300E00E94A5000895FC01848195810E94A000CE
S11300F00895FC01848195810E94A5000895FC0166
S1130100848195810E9402010895FC018481958176
S11301100E9409010895FC01848195810E941B01BC
S11301200895FC01828193810E9437010895FC01A6
S1130130828193810E943E010895FC0160830895A9
S1130140DC01EC91F0E060830895683010F54423FD
S113015081F0DC01EC91F0E0208181E090E0AC01E1
S113016002C0440F551F6A95E2F7BA01622B6083FF
S11301700895DC01EC91F0E0208181E090E0AC0195
S113018002C0440F551F6A95E2F7BA0160956223D5
S1130190608308950F931F93CF93DF93DC0168303E
S11301A060F5483050F5461718F4862F642F482F11
S11301B0C1E0D0E0022F10E09E01062E02C0220F03
S11301C0331F0A94E2F7C90180239123062E02C04B
S11301D0959587950A94E2F7009739F4EC91F0E04D
S11301E0808120952823208305C0EC91F0E0808154
S11301F0282B20836F5F4617F8F6DF91CF911F916C
S11302000F910895DC01EC91F0E08081809580836A
S11302100895683078F4DC01EC91F0E0208181E00D
S113022090E0AC0102C0440F551F6A95E2F7BA0191
S1130230622760830895DC016830C0F44830B0F46C
S1130240461718F4862F642F482F21E030E0EC91F4
S1130250F0E05081C901062E02C0880F991F0A944C
S1130260E2F7852780836F5F461788F70895DC01DE
S1130270EC91F0E08081FB01808308956830B8F44C
S1130280DC01EC91F0E0208181E090E0062E02C0D8
S1130290880F991F0A94E2F730E082239323FC012C
S11302A002C0F595E7956A95E2F7DA01EC930895B3
S11302B00F931F93CF93DF93EC01D901683080F53E
S11302C0483070F5641718F5562F01E010E0E88106
S11302D0F0E080819801052E02C0220F331F0A949A
S11302E0E2F790E082239323052E02C0959587952B
S11302F00A94E2F7009729F420958C9128232C93F3
S113030003C08C91282B2C935F5F541700F38C91BE
S113031090E09C0102C0359527956A95E2F72C93ED
S1130320DF91CF911F910F9108952F923F924F9299
S11303305F926F927F928F929F92AF92BF92CF9271
S1130340DF92EF92FF920F931F93CF93DF93CDB77A
S1130350DEB7A5970FB6F894DEBF0FBECDBF809170
S1130360800090918100009709F09AC00F2EFBE164
S1130370EF2EFF24F02DEC0EFD1EFA82E9828E0191
S1130380065E1F4F1E830D830F2EFCE1CF2EDD244E
S1130390F02DCC0EDD1EDC82CB820F2EFEE18F2EE3
S11303A09924F02D8C0E9D1E98868F820F2EFDE1D0
S11303B0AF2EBB24F02DAC0EBD1EBC86AB860F2E1B
S11303C0FFE16F2E7724F02D6C0E7D1E7A866986F0
S11303D00F2EF1E22F2E3324F02D2C0E3D1E3E86DF
S11303E02D8644245524689445F84C0E5D1E5A8A83
S11303F0498A82E290E08C0F9D1F988B8F8784E25C
S113040090E08C0F9D1F9C8B8B8B83E290E08C0F74
S11304109D1F988F8F8B85E290E08C0F9D1F9E8B84
S11304208D8BCE0149966FE50E949D00C8016BE358
S11304300E949D00C7016AE30E949D00C60169E312
S11304400E949D00C50168E30E949D00C40167E30A
S11304500E949D00C30166E30E949D00C20165E302
S11304600E949D00C10164E30E949D00CE0182961A
S113047063E30E949D00CE01839662E30E949D0087
S1130480CE01849661E30E949D00CE01859660E3CF
S11304900E949D00CE01019690938100809380007C
S11304A08091800090918100A5960FB6F894DEBFEC
S11304B00FBECDBFDF91CF911F910F91FF90EF90B1
S11304C0DF90CF90BF90AF909F908F907F906F9070
S11304D05F904F903F902F9008952F923F924F92AC
S11304E05F926F927F928F929F92AF92BF92CF92C0
S11304F0DF92EF92FF920F931F93CF93DF93CDB7C9
S1130500DEB7A5970FB6F894DEBF0FBECDBF8091BE
S1130510800090918100009709F09AC00F2EFBE1B2
S1130520EF2EFF24F02DEC0EFD1EFA82E9828E01DF
S1130530065E1F4F1E830D830F2EFCE1CF2EDD249C
S1130540F02DCC0EDD1EDC82CB820F2EFEE18F2E31
S11305509924F02D8C0E9D1E98868F820F2EFDE11E
S1130560AF2EBB24F02DAC0EBD1EBC86AB860F2E69
S1130570FFE16F2E7724F02D6C0E7D1E7A8669863E
S11305800F2EF1E22F2E3324F02D2C0E3D1E3E862D
S11305902D8644245524689445F84C0E5D1E5A8AD1
S11305A0498A82E290E08C0F9D1F988B8F8784E2AA
S11305B090E08C0F9D1F9C8B8B8B83E290E08C0FC3
S11305C09D1F988F8F8B85E290E08C0F9D1F9E8BD3
S11305D08D8BCE0149966FE50E949D00C8016BE3A7
S11305E00E949D00C7016AE30E949D00C60169E361
S11305F00E949D00C50168E30E949D00C40167E359
S11306000E949D00C30166E30E949D00C20165E350
S11306100E949D00C10164E30E949D00CE01829668
S113062063E30E949D00CE01839662E30E949D00D5
S1130630CE01849661E30E949D00CE01859660E31D
S11306400E949D00CE0101969093810080938000CA
S11306508091800090918100489667E041E00E947B
S1130660A500A5960FB6F894DEBF0FBECDBFDF91EF
S1130670CF911F910F91FF90EF90DF90CF90BF909B
S1130680AF909F908F907F906F905F904F903F902E
S11306902F900895FC01DB0181E080834183128265
S11306A0109751F0748363838D919C9111971296E6
S11306B06C9140E00E9464000895FC01DB0181E03C
S11306C0808341838283109751F0748363838D9177
S11306D09C91119712966C9141E00E9464000895D8
S11306E0CF93DF9300D0CDB7DEB780917E00909199
S11306F07F00009781F48E010F5F1F4FC8016BE5E7
S11307000E949D00CE01029665E50E949D00109313
S11307107F0000937E0000917E0010917F00C8014D
S11307200E946D02C8010E946D028BB780648BBF6A
S1130730C801019660E041E020E00E94CA0001E6A1
S113074010E00F2EF3E6EF2EF0E0FF2EF02D0F2E2B
S1130750F4EFCF2EF1E0DF2EF02DD8018C91813013
S113076051F4D701ED91FC9180819181628141E046
S11307700E94790009C0D701ED91FC91808191819B
S1130780628140E00E947900C601EFECF7E0319706
S1130790F1F700C000000197C1F7D8018C918130B6
S11307A051F4D701ED91FC9180819181628140E007
S11307B00E94790009C0D701ED91FC91808191815B
S11307C0628141E00E947900C601EFECF7E03197C5
S11307D0F1F700C000000197C1F7BFCF1F920F923D
S11307E00FB60F9211242F933F934F935F936F9300
S11307F07F938F939F93AF93BF93EF93FF93E09176
S11308006D00F0916E008081918162810E9485006B
S1130810FF91EF91BF91AF919F918F917F916F91D4
S11308205F914F913F912F910F900FBE0F901F90AA
S113083018950F931F93CF93DF930E949501909384
S11308408300809382004296909385008093840075
S11308501092880068E870E0FB0192938293BF01D4
S113086021E020938B000BE810E0F801929382932F
S11308708F0122E020938E00CEE8D0E09A938A93F1
S113088089E790E041E00E944A0384E790E0B801E0
S113089041E00E944A038FE690E0BE0141E00E94DD
S11308A04A03809184009091850025E02093910073
S11308B061E970E0FB0192938293BF0126E02093EB
S11308C0940004E910E0F801929382938F0127E0E9
S11308D020939700C7E9D0E09A938A938AE690E040
S11308E041E00E945D0385E690E0B80141E00E948A
S11308F05D0380E690E0BE0141E00E945D03DF916C
S1130900CF911F910F910895EE0FFF1F0590F49161
S10B0910E02D0994F894FFCFD7
S9030000FC
